:100000000C9462000C948A000C948A000C948A0070
:100010000C948A000C948A000C948A000C94E304DB
:100020000C948A000C948A000C948A000C9430067C
:100030000C948A000C948A000C948A000C948A0018
:100040000C9499040C948A000C9467040C94410459
:100050000C948A000C948A000C948A000C948A00F8
:100060000C948A000C948A000000000024002700F1
:100070002A0000000000250028002B0000000000DE
:1000800023002600290004040404040404040202DA
:100090000202020203030303030301020408102007
:1000A0004080010204081020010204081020000012
:1000B0000008000201000003040700000000000027
:1000C00000006C0611241FBECFEFD8E0DEBFCDBF0D
:1000D00011E0A0E0B1E0EAE1F3E102C005900D9289
:1000E000A036B107D9F722E0A0E6B1E001C01D9229
:1000F000A632B207E1F710E0C2E6D0E004C02197D3
:10010000FE010E948509C136D107C9F70E94B706D2
:100110000C948B090C940000AF92BF92CF92DF92A7
:10012000EF92FF920F931F93CF93DF936C017B01AC
:100130008B01040F151FEB015E01AE18BF08C0173D
:10014000D10759F06991D601ED91FC910190F081B0
:10015000E02DC6010995892B79F7C501DF91CF9173
:100160001F910F91FF90EF90DF90CF90BF90AF90D5
:100170000895FC01538D448D252F30E0842F90E0AD
:10018000821B930B541710F0CF9608950197089592
:10019000FC01918D828D981761F0A28DAE0FBF2F5B
:1001A000B11D5D968C91928D9F5F9F73928F90E0B1
:1001B00008958FEF9FEF0895FC01918D828D981720
:1001C00031F0828DE80FF11D858D90E008958FEF5D
:1001D0009FEF0895FC01918D228D892F90E0805C26
:1001E0009F4F821B91098F739927089581E791E0B2
:1001F0000E94EA0021E0892B09F420E0822F089573
:1002000080E090E0892B29F00E94F60081110C9487
:1002100000000895FC01A48DA80FB92FB11DA35AA9
:10022000BF4F2C91848D90E001968F739927848F16
:10023000A689B7892C93A089B1898C918370806439
:100240008C93938D848D981306C00288F389E02DDA
:1002500080818F7D80830895EF92FF920F931F938B
:10026000CF93DF93EC0181E0888F9B8D8C8D981369
:100270001AC0E889F989808185FF15C09FB7F89475
:10028000EE89FF896083E889F989808183708064C1
:1002900080839FBF81E090E0DF91CF911F910F910C
:1002A000FF90EF900895F62E0B8D10E00F5F1F4F1B
:1002B0000F731127E02E8C8D8E110CC00FB607FC2A
:1002C000FACFE889F989808185FFF5CFCE010E94B8
:1002D0000A01F1CFEB8DEC0FFD2FF11DE35AFF4F1B
:1002E000F0829FB7F8940B8FEA89FB898081806246
:1002F000CFCFCF93DF93EC01888D8823B9F0AA8903
:10030000BB89E889F9898C9185FD03C0808186FDD0
:100310000DC00FB607FCF7CF8C9185FFF2CF80811F
:1003200085FFEDCFCE010E940A01E9CFDF91CF9189
:100330000895833081F028F4813099F08230A9F05B
:1003400008958730A9F08830C9F08430B1F48091E5
:1003500080008F7D03C0809180008F778093800024
:10036000089584B58F7784BD089584B58F7DFBCFC4
:100370008091B0008F778093B00008958091B00095
:100380008F7DF9CFCF93DF93282F30E0F901E2552D
:10039000FF4F8491F901E656FF4FD491F901EA57D6
:1003A000FF4FC491CC23A1F081110E949901EC2F41
:1003B000F0E0EE0FFF1FE458FF4FA591B491EC91D0
:1003C000ED2381E090E009F480E0DF91CF91089582
:1003D00080E090E0FACF1F93CF93DF93282F30E097
:1003E000F901E255FF4F8491F901E656FF4FD49190
:1003F000F901EA57FF4FC491CC23A9F0162F8111C0
:100400000E949901EC2FF0E0EE0FFF1FEE58FF4F16
:10041000A591B4918FB7F894EC91111108C0D095C3
:10042000DE23DC938FBFDF91CF911F910895DE2BE8
:10043000F8CFCF93DF9390E0FC01E656FF4F249175
:100440008A579F4FFC0184918823C9F090E0880F60
:10045000991FFC01E859FF4FA591B491FC01EE589A
:10046000FF4FC591D49161110DC09FB7F8948C9145
:10047000209582238C938881282328839FBFDF9136
:10048000CF910895623051F49FB7F8943C91822F38
:10049000809583238C93E8812E2BEFCF8FB7F89430
:1004A000EC912E2B2C938FBFEACF089590E080E043
:1004B0000895FC0101900020E9F73197AF01481B36
:1004C000590BBC018EE092E00C948C008F929F92AD
:1004D000AF92BF920F931F93CF93DF93CDB7DEB749
:1004E000A1970FB6F894DEBF0FBECDBF19A2423060
:1004F00008F44AE08E010F5D1F4F842E912CB12C21
:10050000A12CA50194010E946309E62FB901CA013B
:10051000EA30F4F4E05DD801EE938D01232B242B17
:10052000252B79F790E080E0109719F0CD010E941B
:100530005902A1960FB6F894DEBF0FBECDBFDF9172
:10054000CF911F910F91BF90AF909F908F90089582
:10055000E95CE1CFCF93DF93EC0160E08E810E94F4
:10056000EB0161E08E810E94EB0160E08E810E94D0
:10057000EB018BE891E00197F1F7DF91CF910895BE
:10058000CF92DF92EF92FF920F931F93CF93DF935F
:100590006C017C0187E0E80EF11CD0E0C0E0062F82
:1005A00010E0B8010C2E02C0759567950A94E2F729
:1005B0006170F70181917F010E94EB012196C430A7
:1005C000D10579F7C601DF91CF911F910F91FF906F
:1005D000EF90DF90CF900C94AA02CF92DF92EF922F
:1005E000FF920F931F93CF93DF93EC01F62E642FAE
:1005F0008C810E94EB018D818F3F19F060E00E9499
:10060000EB010F2D10E08F8584FF25C06E0187E080
:10061000C80ED11CF12CE12CB8010E2C02C075952E
:1006200067950A94E2F76170F60181916F010E946B
:10063000EB01FFEFEF1AFF0A88E0E816F10461F71B
:10064000CE01DF91CF911F910F91FF90EF90DF903E
:10065000CF900C94AA02B80184E0759567958A95AD
:10066000E1F7CE010E94C0026F2DCE01DF91CF9144
:100670001F910F91FF90EF90DF90CF900C94C002EC
:1006800040E0682F8EE092E00C94ED0281E00E9441
:1006900040038BE39FE10197F1F70895CF93DF9338
:1006A000613029F090911D02986090931D02609333
:1006B00021021092220290E490932302809324025C
:1006C000805C8093250261E0809112020E941902F1
:1006D000809113028F3F19F061E00E94190261E0DE
:1006E000809114020E941902CEE0D2E09E012E50A9
:1006F000324080911D0284FD0BC084E090E0219681
:100700002817390744F461E08E810E941902EECF68
:1007100088E090E0F4CF8BE39DE00197F1F760E093
:10072000809112020E94EB0160E0809114020E940D
:10073000EB01809113028F3F19F060E00E94EB0102
:1007400080911D0284FD34C063E08EE092E00E943F
:10075000C002CBE4D6E4CE010197F1F763E08EE06E
:1007600092E00E94C0022197F1F763E08EE092E0F0
:100770000E94C00283E592E00197F1F762E08EE00B
:1007800092E00E94C00280911D0280620E9440039C
:1007900084E080931E028CE00E9440030E94460386
:1007A00082E080931F0286E0DF91CF910C9440039A
:1007B00080620E9440038BE496E40197F1F78091F8
:1007C0001D0280620E94400383E592E00197F1F7E9
:1007D00080911D0280620E944003D5CF909121023A
:1007E000691710F06FEF690FE62FF0E0E25FFD4F41
:1007F0009489890F80680C9440030E94460381E02D
:100800008093700160E080E00E94EE038EE191E051
:100810000E94590261E080E00E94EE038BE291E0C9
:100820000C94590241E00E94ED0281E090E00895AD
:10083000CF92DF92EF92FF926C01990FEE08FF08C2
:10084000F7FE16C041E06DE28EE092E00E94ED02FC
:1008500066277727CB016C197D098E099F094AE02D
:100860000E9466020196FF90EF90DF90CF9008956E
:100870004AE0C701B601FF90EF90DF90CF900C9453
:1008800066021F920F920FB60F9211242F933F937F
:100890004F935F936F937F938F939F93AF93BF9388
:1008A000EF93FF9381E791E00E940A01FF91EF919E
:1008B000BF91AF919F918F917F916F915F914F9178
:1008C0003F912F910F900FBE0F901F9018951F9280
:1008D0000F920FB60F9211242F938F939F93EF9344
:1008E000FF93E0918101F09182018081E091870185
:1008F000F091880182FD1BC0908180918A018F5FF9
:100900008F7320918B01821741F0E0918A01F0E012
:10091000EF58FE4F958F80938A01FF91EF919F9141
:100920008F912F910F900FBE0F901F90189580817F
:10093000F4CF1F920F920FB60F9211242F933F9373
:100940008F939F93AF93BF938091650190916601C0
:10095000A0916701B09168013091640123E0230FF9
:100960002D3758F50196A11DB11D20936401809388
:10097000650190936601A0936701B093680180912F
:10098000600190916101A0916201B09163010196B3
:10099000A11DB11D8093600190936101A09362013C
:1009A000B0936301BF91AF919F918F913F912F9130
:1009B0000F900FBE0F901F90189526E8230F0296F8
:1009C000A11DB11DD2CF1F920F920FB60F9211240D
:1009D0008F929F92AF92BF92CF92DF92EF92FF924F
:1009E0002F933F934F935F936F937F938F939F9337
:1009F000AF93BF93CF93DF93EF93FF9380917001F9
:100A0000882309F448C0C0906B01D0906C01E0903D
:100A10006D01F0906E01C0916901D0916A0120E0F2
:100A200030E040E751E4C701B6010E94EC0887FDC1
:100A30004DC0CC0FDD1FCC0FDD1F10927001109246
:100A40006B0110926C0110926D0110926E01109268
:100A50006A011092690110926F010E94460360E0E2
:100A600080E00E94EE0386E491E00E94590260E07B
:100A70008EE00E94EE03CE010E94180461E080E047
:100A80000E94EE0389E391E00E9459026C2F81E7F6
:100A900091E00E942C01FF91EF91DF91CF91BF91E6
:100AA000AF919F918F917F916F915F914F913F9106
:100AB0002F91FF90EF90DF90CF90BF90AF909F90DD
:100AC0008F900F900FBE0F901F90189584E00E949A
:100AD000C201892B61F080916F01811108C02196BC
:100AE000D0936A01C093690181E080936F0184E033
:100AF0000E94C201892B29F480916F01811110920B
:100B00006F0160E08EE00E94EE0380916901909198
:100B10006A010E94180461E08EE00E94EE03A701C2
:100B20009601C701B6010E945E09882329F083E57A
:100B300091E00E945902AFCF46015701E894B7F8FF
:100B40002FEF3FEF4FE75FE7C501B4010E945E0959
:100B500081110DC02FEF3FEF4FE75FE7C501B401F3
:100B60000E94060818161CF487E591E0E2CF2FEFEB
:100B70003FEF4FE75FE4C701B6010E94EC0818168B
:100B80001CF48BE591E0D5CF2FEF3FEF4FE75FEC03
:100B9000C701B6010E94060887FDF3CF20E030E0D0
:100BA000A901C701B6010E94060887FF0AC041E0FB
:100BB0006DE28EE092E00E94ED02F7FAF094F7F811
:100BC000F0942AE037ED43EA5BE3C701B6010E94E7
:100BD0009A074B015C010E940B086B017C010E948B
:100BE0003A089B01AC01C501B4010E9499074B0171
:100BF0005C014AE0C701B6010E94660241E06EE274
:100C00008EE092E00E94ED0220E030E040E251E40C
:100C1000C501B4010E94F1084B015C010E940B0860
:100C20006B01F12CE12C4AE0C701B6010E9466027B
:100C3000C701B6010E943A089B01AC01C501B4018D
:100C40000E94990720E030E040E251E40E94F10860
:100C50000E940B0890E080E04AE00E9466021BCFF1
:100C60001F920F920FB60F9211242F933F934F9321
:100C70005F936F937F938F939F93AF93BF93EF9304
:100C8000FF93809170018823B1F020E030E040E8CC
:100C90005FE360916B0170916C0180916D019091A7
:100CA0006E010E949A0760936B0170936C018093B0
:100CB0006D0190936E01FF91EF91BF91AF919F9164
:100CC0008F917F916F915F914F913F912F910F90F5
:100CD0000FBE0F901F901895E1E7F1E0138212828A
:100CE00088EE93E0A0E0B0E084839583A683B78389
:100CF00084E091E09183808385EC90E09587848700
:100D000084EC90E09787868780EC90E0918B808BD5
:100D100081EC90E0938B828B82EC90E0958B848BBE
:100D200086EC90E0978B868B118E128E138E148E2C
:100D3000EEE0F2E01382128286E191E091838083FB
:100D40008DE084838FEF85838CE086838BE08783BF
:100D50008AE0808789E0818788E08287138614860D
:100D600015861686178661E080E10C944E03789410
:100D700084B5826084BD84B5816084BD85B58260A0
:100D800085BD85B5816085BD80916E008160809351
:100D90006E001092810080918100826080938100BA
:100DA00080918100816080938100809180008160CA
:100DB000809380008091B10084608093B100809125
:100DC000B00081608093B00080917A00846080934D
:100DD0007A0080917A00826080937A0080917A0014
:100DE000816080937A0080917A00806880937A0095
:100DF0001092C10060E084E00E94190262E082E08B
:100E00000E94190261E086E00E94190260E086E01B
:100E10000E94EB0110926F011092700110926B0111
:100E200010926C0110926D0110926E0110926A0185
:100E300010926901F894109280009DE090938100D7
:100E400082E080936F0028E03DE330938900209397
:100E500088001092B0009093B100809370009CE9DC
:100E60009093B3007894E0918101F09182018083A6
:100E7000E0917D01F0917E011082E0917F01F0917F
:100E800080018FEC808310928901E0918501F091BF
:100E9000860186E08083E0918301F0918401808166
:100EA00080618083E0918301F0918401808188607A
:100EB0008083E0918301F091840180818068808348
:100EC000E0918301F091840180818F7D808364E0D3
:100ED00084E10E944E030E94460389E391E00E9450
:100EE0005902C0E0D0E081E791E00E94EA00892B3E
:100EF00061F081E791E00E94C800813331F4809174
:100F00007001811102C00E94FD0382E00E94C201B3
:100F1000892B31F480917001811102C00E94FD0380
:100F2000209709F30E94F6008823E9F20E9400004E
:100F3000DACF5058BB27AA270E94B1070C94B208F9
:100F40000E94A40838F00E94AB0820F039F49F3FBB
:100F500019F426F40C94A1080EF4E095E7FB0C9428
:100F60009B08E92F0E94C30858F3BA17620773075A
:100F70008407950720F079F4A6F50C94E5080EF4A3
:100F8000E0950B2EBA2FA02D0B01B90190010C0199
:100F9000CA01A0011124FF27591B99F0593F50F4B1
:100FA000503E68F11A16F040A22F232F342F442709
:100FB000585FF3CF469537952795A795F040539501
:100FC000C9F77EF41F16BA0B620B730B840BBAF0D1
:100FD0009150A1F0FF0FBB1F661F771F881FC2F73C
:100FE0000EC0BA0F621F731F841F48F48795779550
:100FF0006795B795F7959E3F08F0B0CF9395880F0A
:1010000008F09927EE0F9795879508950E94770825
:1010100008F481E008950E94CB0888F09F5798F06B
:10102000B92F9927B751B0F0E1F0660F771F881FED
:10103000991F1AF0BA95C9F714C0B13091F00E9407
:10104000E508B1E008950C94E508672F782F88270C
:10105000B85F39F0B93FCCF3869577956795B3952E
:10106000D9F73EF490958095709561957F4F8F4F9D
:101070009F4F0895E89409C097FB3EF490958095A2
:10108000709561957F4F8F4F9F4F9923A9F0F92F4E
:1010900096E9BB279395F695879577956795B795CC
:1010A000F111F8CFFAF4BB0F11F460FF1BC06F5FB2
:1010B0007F4F8F4F9F4F16C0882311F096E911C0C4
:1010C000772321F09EE8872F762F05C0662371F0E5
:1010D00096E8862F70E060E02AF09A95660F771FF9
:1010E000881FDAF7880F9695879597F90895990FD5
:1010F0000008550FAA0BE0E8FEEF16161706E807E2
:10110000F907C0F012161306E407F50798F0621B02
:10111000730B840B950B39F40A2661F0232B242BD7
:10112000252B21F408950A2609F4A140A6958FEFF6
:10113000811D811D089597F99F6780E870E060E048
:1011400008959FEF80EC089500240A941616170660
:1011500018060906089500240A94121613061406A8
:1011600005060895092E0394000C11F4882352F00B
:10117000BB0F40F4BF2B11F460FF04C06F5F7F4FC3
:101180008F4F9F4F089557FD9058440F551F59F0AA
:101190005F3F71F04795880F97FB991F61F09F3F64
:1011A00079F087950895121613061406551FF2CF8D
:1011B0004695F1DF08C0161617061806991FF1CFDD
:1011C00086957105610508940895E894BB27662704
:1011D0007727CB0197F908950E94770808F48FEFDD
:1011E00008950E9404090C94B2080E94A40838F0E3
:1011F0000E94AB0820F0952311F00C949B080C94EE
:10120000A10811240C94E6080E94C30870F3959F6E
:10121000C1F3950F50E0551F629FF001729FBB27ED
:10122000F00DB11D639FAA27F00DB11DAA1F649F89
:101230006627B00DA11D661F829F2227B00DA11D3C
:10124000621F739FB00DA11D621F839FA00D611DC2
:10125000221F749F3327A00D611D231F849F600DE3
:10126000211D822F762F6A2F11249F5750409AF00C
:10127000F1F088234AF0EE0FFF1FBB1F661F771F98
:10128000881F91505040A9F79E3F510580F00C9463
:101290009B080C94E6085F3FE4F3983ED4F38695F0
:1012A00077956795B795F795E7959F5FC1F7FE2B03
:1012B000880F911D9695879597F908950E94770854
:1012C000880B990B0895A1E21A2EAA1BBB1BFD01E6
:1012D0000DC0AA1FBB1FEE1FFF1FA217B307E40715
:1012E000F50720F0A21BB30BE40BF50B661F771F6D
:1012F000881F991F1A9469F760957095809590954D
:101300009B01AC01BD01CF010895EE0FFF1F0590B9
:0A131000F491E02D0994F894FFCF4A
:10131A00000000002C018C00B9007901EA00C80025
:10132A00DC000000000012048C00560255024375CE
:10133A007272656E742048423A200054696D6520C5
:10134A00696E205365633A20005072657373206298
:10135A007574746F6E00484220706572204D696E14
:10136A003A20006E616E00696E66006F7666000054
:00000001FF
